:10000000480800202901000025010000250100000A
:1000100000000000000000000000000000000000E0
:1000200000000000000000000000000025010000AA
:100030000000000000000000250100002501000074
:100040002501000025010000250100002501000018
:10005000250100002501000025010000151F0000FA
:1000600025010000250100002501000025010000F8
:1000700025010000250100000121000025010000EC
:100080002501000025010000250100000448054B62
:1000900010B5834203D0044B002B00D0984710BD0D
:1000A000403F0000403F00000000000006480749B4
:1000B000091A8B10C90FC91810B5491003D0044B89
:1000C000002B00D0984710BD403F0000403F00008B
:1000D0000000000010B5074C2378002B09D1FFF772
:1000E000D5FF054B002B02D0044800E000BF0123E0
:1000F000237010BD7400002000000000003F0000CD
:10010000054B10B5002B03D00449054800E000BFA3
:10011000FFF7CCFF10BDC0460000000078000020B3
:10012000003F0000FEE700001F4A204B70B5204949
:100130009A4234D100211F4B1F4A934232D3FF22EF
:100140001E4B032193431E4A0C2593600222082470
:1001500030261C4B1C485A62C3788B431343C37030
:10016000C378AB432343C370184B987BB04306005E
:10017000202030439873987BA84304439C73987B5A
:10018000884302439A738023114A51680B4353609A
:10019000104B9847104B9847FEE701CA01C38B42AA
:1001A000FBD3C7E702C3C8E7C02600000000002059
:1001B00074000020740000204404002000000000AF
:1001C00000ED00E0FC70004100500041004800419B
:1001D0000040004199230000AD1E0000014B024A7F
:1001E0001A6070470000002040420F000423184AA4
:1001F000116A0B431362174B174AFF215A801422CE
:10020000164B1A60DA688A43110005220A43DA6045
:10021000DA6813491140A022D2000A43DA60802232
:1002200052005A600F49104A9162DA699207FCD471
:10023000022219680A431A60DA695207FCD4302195
:100240005A8B8A43110010220A435A837047C046D2
:1002500000040040000C00400E4000000008004276
:10026000FF00FFFF00C0015200440041144B70B575
:100270000400144D10005A682A405A60DA69520787
:10028000FCD464005C621A7ED207FCD501240E4DBA
:100290001C760A18914208D1DA695207FCD4C021B1
:1002A0005A6889021143596070BDDE697607FCD433
:1002B0000E782E701E7EF607FCD51C760131E9E71C
:1002C00000080042FFFFFBFF280800420023C2583D
:1002D000CA500433402BFAD1704700000023CA589B
:1002E00004C3402BFBD1084B084A4008D8611A8050
:1002F0001A7DD207D00F002A01D0012002E01A7D1A
:100300009207F5D57047C0460040004104A5FFFFA5
:10031000074B084A4008D8611A801A7DD207D00FCF
:10032000002A01D0012002E01A7D9207F5D570471E
:100330000040004102A5FFFF7FB50A260400074DDB
:10034000022207490320A8473200064B064901A8AC
:1003500098473200200001A9A8477FBD6D02000028
:100360009E250000DD23000094250000F8B5130051
:100370000C0069460833DB08DB00CB1A00AF9D4652
:10038000822369460B7000234E1CDDB2AA4205D8B9
:100390000132044BD2B29847BD46F8BDE55CF55436
:1003A0000133F2E76D02000007B506236A461371B8
:1003B0005171024B022201A9984707BD6D0200004E
:1003C000F82307B55B4201A90B800222014B984735
:1003D00007BDC0466D020000082307B501A90B80C8
:1003E0000222014B984707BD6D0200004C23434396
:1003F0000C4810B5C0180C4B44789847002803D11E
:1004000000200123184010BD084B98470028F7D161
:10041000002CF5D0064B2100984701235840C0B26C
:10042000EFE7C0469000002059090000690900006C
:10043000FD0B0000F7B54C2545431C4E1C007319FD
:100440000090019100205978194B17009847002817
:1004500020D0019A0835174BAD19002A1BD0221C59
:100460001F2C00D91F22D4B24C220099681C4A4389
:100470000199B21811722200390098470134E4B290
:100480004C20009AA3B2504336182A0000207178FD
:10049000094CA047FEBD221C202C00D92022D4B23A
:1004A0002200390028009847EAE7C0469000002063
:1004B000810B0000DD230000B50B000010B5982271
:1004C00000210248024B984710BDC0469000002012
:1004D0008524000010B50020014B984710BDC04690
:1004E000BD040000F0B587B0059013004A790D00F7
:1004F000032A04D000230493049807B0F0BD0A79BE
:1005000007215143123104919942F3D8214B597874
:10051000002905D019004D3109780029EAD10131AF
:100520004C24039103982978444369181F19B9642E
:1005300048782128DED10878174E0918601C181851
:100540000190A01C1B18009305980323B0470028B6
:10055000D0D0AB79012B01D1EB79FB704C23039AFE
:100560000C4E53430022F7183A71AA78A01D9A55F1
:10057000BB6C0222D91D8019084B9847B978002915
:10058000BAD02200283220230598054C9219A047A2
:10059000B2E7C046900000202D0B0000DD230000D4
:1005A000B50B0000F0B51F270B7887B01F40060081
:1005B0000C000397012F01D0002023E0484D0A7959
:1005C0002978914206D029004C3109789142F3D123
:1005D000039F01E000270397602219001140134296
:1005E00021D16378062BE7D1E378212B0CD1143A83
:1005F0007A43AD18AA6C002ADED0210030001378AF
:10060000384CA04707B0F0BD222BD5D1364B03980C
:1006100098474C2302007B43ED18EB882100300003
:10062000304CA04739E02029C6D14C2260787A436B
:1006300001380A28C0D801F091FE063236BFBFBF8C
:10064000BFBF17204100E379A07908321B02AD1823
:100650000343E278A17803980093244F2B00B84716
:100660002A00031EA8D0D9E7E379A1791B020B4326
:10067000202BA1D82832AA18D0E74C227A43E07860
:100680001B4BAD186871002B03D09847002800D190
:1006900092E721003000174B98470120B2E705325E
:1006A000AA180123BAE70F2202ABD2184C237B43CE
:1006B0000127ED182B79FB1A1370F2E7E078A37885
:1006C0004C22000218430138431E98417A430A4BDA
:1006D000C0B2AD182871002BDBD09847D9E7C046CF
:1006E000900000207D120000D1220000A92200000D
:1006F00000000000451200000000000073B5194B17
:100700000C001A780979914207D018004C3005780E
:10071000012600208D4201D076BD0026602025787C
:1007200005405F38202DF7D16578092DF4D191422D
:1007300015D01A004C32127800208A42ECD10130D8
:100740004C2272432832A579A1789B18E278E4798B
:1007500024022C430094044CA0470120DCE7002035
:10076000EEE7C04690000020AD220000F7B50F4C28
:100770000500A2788A4216D04E34227800208A42A0
:1007800010D10B4C01302600002228369BB21100FC
:100790000093084F3300B847A17820233200280087
:1007A000054CA047FEBD0020EDE7C04690000020AC
:1007B000DC000020AD220000B50B000070B5040085
:1007C000E38815001A000800E1896A435943236849
:1007D0005918084B9847E389A2885B199BB293424A
:1007E00001D39B1A9BB2E3816289551BADB265812F
:1007F00070BDC046DD23000070B50400150080897F
:10080000E288236850436A4318180B4B9847A38922
:10081000A2885B199BB2934201D39B1A9BB2A3811E
:1008200063899A4203D1A3899BB2E38170BD628937
:100830005519ADB26581F9E7DD230000002310B53D
:1008400042899A4203D0034B0122984701231800A2
:1008500010BDC046BD07000010B5438982889A428A
:1008600002D1037A002B03D0024B012298470123C7
:10087000180010BDF9070000002343818381C38164
:10088000012070470A4A0300002A0BD0094A107859
:10089000984205D91C20084A43431068C018704785
:1008A0001B1ADBB200208342F9D10448F7E7C046A7
:1008B000000000002C01002028010020A0250000DD
:1008C00070B5104C104E3222002105002000B047B8
:1008D0001022FF21A01CB04720001022FF2112305F
:1008E000B0470A4B98470024094B200098474368BB
:1008F00028009847074B01341B78E4B2A342F3D297
:1009000070BDC0462D01002085240000E9120000C2
:10091000850800002C01002070B505000E00141E93
:1009200005D10378012B02D11000084B9847310004
:10093000074B281D98470600002C05D12B78012B6A
:1009400002D12000034B9847300070BD791400009D
:10095000590800006D140000024B18784007C00FC2
:100960007047C0462D010020024B18780007C00FC9
:100970007047C0462D010020094A10B513781B07A7
:10098000DC0F002B07DA137830221340934204D196
:100990000020044B9847200010BD0024FBE7C04610
:1009A0002D0100208D14000070B532220021124B61
:1009B00012489847124C134B201D9847124B134D69
:1009C0001C60134B002B03D028009847114B186074
:1009D0000024114B200098470368984701342B7876
:1009E000E4B2A342F5D200200C4B984700200C4BF8
:1009F0009847012070BDC046852400002D010020CD
:100A00000400002079080000600100202C01002073
:100A1000000000002801002085080000DD13000010
:100A20006D14000010B5040040780A000238032855
:100A30001CD801F09DFC022513210120114B1978CF
:100A400081431970197800188143197019780230A0
:100A50008143197008201978814306E0094B197801
:100A6000C9070DD50821187801431970064B2100DC
:100A70001868064B984703E0024B1978C907E9D478
:100A800010BDC0462D0100206001002019090000A2
:100A90007FB506000D00140000210C22054B01A8B3
:100AA00098476B4621001E715D7101A8024B984763
:100AB0007FBDC04685240000250A00001FB5140034
:100AC0006B460022DA806B466A461871062302A83C
:100AD00053710822034B98472100034B01A8984704
:100AE0001FBDC046DD230000250A0000F0B587B019
:100AF00003AC01930CAB1F7806000D00009200219F
:100B000008222000074B984707236370009B390099
:100B1000A360019B20006371034B267025719847E9
:100B200007B0F0BD85240000250A0000F7B50600D7
:100B30000C001F0000250192019BAB4201DC01204B
:100B400003E06378052B01D00020FEBDE3789B070E
:100B50009B0FBB42F8D121003000084B984700287A
:100B6000F2D0A378DA09012A05D1099A1370237803
:100B70000135E418E0E7089AF8E7C046E114000000
:100B80007F22CB090A400A4952008918C91803314B
:100B9000CB7FDB07D80F002B08D1CB7F5B0704D4BA
:100BA00004230120CA7F1343CB7770470020FCE762
:100BB0002D01002070B57F240C40060060000D4C14
:100BC000CD09241864190334E57F0020ED070FD404
:100BD0000125E07F2843E0773000074EB04700282A
:100BE00006D10422E37FAB43E377E37F9343E377CC
:100BF00070BDC0462D010020791500007F22CB0971
:100C00000A40044952008918C9180331C87FC00737
:100C1000C00F70472D01002010B50A4B0C009847FB
:100C20007F2121404B000849E409C9180223091912
:100C30000331CA7F1343CB770123CA7F1343CB779A
:100C400010BDC0463D1600002D01002010B50A4B16
:100C50000C0098477F21022221404B000749E409FC
:100C6000C91809190331CB7F9343CB77CB7F013A66
:100C70009343CB7710BDC046591600002D010020CC
:100C8000F0B5B94B89B09847002800D18EE2B74B38
:100C90001E683378012B02D10020B54B984705AC74
:100CA000B44B2100301D9847337805000190012B8B
:100CB00002D10020B04B9847002D00D176E2607839
:100CC00001380728E3D801F05DFB08000F00680237
:100CD0004D025702170027026A02A84B2078984756
:100CE0002279A74B5A70D2E7A44B20789847A54B9E
:100CF000002BCCD09847CAE70122A14E00203378C0
:100D0000A14F134333702578B847602223791A40E6
:100D1000602A00D1D7E0402A0FD19C4C002C00D192
:100D2000D1E09B48002800D0B847280006A9A0477A
:100D30000190019B002BAAD1C5E0DB06DB0E012B45
:100D400000D16FE1022B00D18FE1002B00D0BAE07F
:100D5000202A11D1237A0F2B00D9B4E0F618B078ED
:100D60008C4B9847041E00D1ADE00069B8472800BD
:100D7000E36806A99847DBE7002A00D0A3E0607982
:100D8000092800D99FE001F0FDFA3D0135019E00E0
:100D90002C019E000A00BE009E0016001E007E4B25
:100DA00006A898477D4B2800A179984702233278FE
:100DB000134333706BE7337804AA5B07DB0F02320F
:100DC0001370012329E1A379019333785B0728D4B9
:100DD000019B002B25D0581EC0B2714B98470028AC
:100DE00071D04378022B6ED101210400C2790934FD
:100DF000931152110B400A4052019B011343327868
:100E00005F318A4313433370C37882781B021343E4
:100E1000C3180293029BA34214D8624B002B00D04C
:100E20009847019B01205A1E9341554903400A7877
:100E300003309B00824313430B7028005A4B06A9D2
:100E4000984724E7637800260B2B02D123782600ED
:100E5000E4186378042B36D1029B1F1BBBB200271A
:100E600003934C4B3800984721008368039A28006D
:100E70009847002840D0082825D9039B834222D3D5
:100E8000A2783F4B9B189978FF291CD19F70002EA8
:100E900022D13B4B210000229C464B78052B07D1E9
:100EA0008E787A3333405B0063441233F6099F55E2
:100EB0000B78D21892B2C9189042EED83B4B241846
:100EC0001B78BB42A6D205AD28780021384CA0473C
:100ED00080212878A047DAE6B1789142F3D13179C0
:100EE00062799142EFD10122F17801338A42D0D266
:100EF00001329F70D2B2F8E72C4B01371B78FFB25A
:100F0000BB42AED2DFE7E088C3B2000A01380E2848
:100F1000D9D801F023FA082357D8D860D8D8D8D820
:100F2000D8D8D8D81400234B9847122302002800A1
:100F3000214C06A9A047002800D0A8E6C3E71F4B14
:100F4000002BC0D09847040004AB9E1C02221C4B0F
:100F50003000A11C984722003388E8E71800104BA6
:100F60009847041EF0D1AEE7FD1700006001002095
:100F7000791400003D0800006D140000C108000055
:100F80002D010020AB210000011300000000000033
:100F900000000000850800000D1300001D16000071
:100FA000E9220000A9210000451200002C010020C8
:100FB0003D160000C92200007D1200000000000064
:100FC000DD23000018002189794B9847021E00D1CB
:100FD00079E70378ABE7774B002B00D173E79847AD
:100FE000F4E7E388012B00D06DE732780F33134329
:100FF000337022E7E388012B00D064E710223378B6
:101000009343F5E70121337804AA98090840D908E9
:10101000022319400232014311802800664C06A9C0
:10102000A04734E6237A0F2B00D94CE7F618B078A6
:10103000624B9847061E00D145E70069B847280073
:10104000F36806A99847002800D020E660216022B6
:1010500023791940134200D035E763790A2B00D079
:1010600031E704AB9A1C1170ABE6217A78200F00AF
:101070000740BC46014200D025E7073008400290F7
:10108000CF09002A45D16279012A31D0032A3AD00A
:10109000002A00D017E74200B618F6190336F17F90
:1010A00004AA8907C90F023211802800424C06A900
:1010B000A047029B5A00424B9B18DF19B87C3F4B5C
:1010C0009847041E09D000693E4B98472800E36802
:1010D00006A99847002800D0019005AB1A79602333
:1010E000100018401A4200D023E6364B984720E6FD
:1010F000E388002B02D12800334B98472800334B5C
:1011000006A99847D5E7E388002BF7D12800304B94
:10111000F3E763460193CCE77F2001262579284B2E
:1011200028404100EA095B189B18DA1CD17FB143C3
:10113000D177D17F0336B143D177002806D16279C8
:10114000A36829002078234CA047A0E5987C1B4B7E
:101150009847031E2AD05E69290062792078A36827
:10116000B04794E51C4B002B00D190E5144A107851
:10117000C006C00F98478AE5184BB9E50F4B280009
:1011800098478369002B01D0207898470135EDB24C
:10119000134B1B78AB42F1D279E50025F8E7636881
:1011A000002B00D173E5A068984770E509B0F0BD49
:1011B000F1220000000000007D1200008508000000
:1011C0002D010020011300004D0C0000451200000D
:1011D000190C00002D130000AD210000C1210000FA
:1011E0002C01002070B5134B0600D9899889421A4A
:1011F000151C92B2402A00D940251A78ADB27F2A38
:101200000ED9884211D00C4C99682A0020000B4B53
:101210009847802122002B003000094CA04770BD68
:10122000884204D100210022F5E78021FBE700215C
:10123000014AF0E76401002078010020DD2300006E
:101240007915000070B50A4E040008223000094BE1
:101250000D009847002169560022C943C90FF2606A
:1012600013002000C901044CB260A04770BDC04605
:1012700064010020DD23000079150000F7B5164F4A
:10128000150001930822154B060038000C00984702
:101290000023BD60FB81E279A379120201991A4310
:1012A000131C8A4201D96B469B8899B2BB81002AE4
:1012B00007D0002901D0281E02D03000084B9847E3
:1012C000FEBD002161561300C943C90F3000054C13
:1012D000C901A047F4E7C04664010020DD230000F7
:1012E000E51100007915000010B514220021024814
:1012F000024B984710BDC0466401002085240000C1
:10130000014B18617047C0466401002010B5054CC0
:10131000010008222000044B98470023A360E360EB
:1013200010BDC04664010020DD230000F8B5244C48
:101330001F0023780600DA09C9098A420AD000256D
:10134000AF4205D11F4B0135002B01D0210098473A
:101350002800F8BD7F2B06D8A068051EF8D03A00FB
:1013600019491A4B9847A268E389D219DB19A26080
:10137000E2889BB2E3819A4201D03F2F1BD82369B8
:10138000002B0BD1002161560023C943C90F1A005D
:1013900030000F4CC901A0470500D9E721003000FB
:1013A0009847011EEED130000A4CA0478021300042
:1013B000A0470125CCE73000074B9847ECE7C04633
:1013C000640100209D14000078010020DD2300004E
:1013D000791500003D160000E511000001221E4BAA
:1013E00030B519780A431A709A78D207FCD59A78E2
:1013F000D207FCD41F25194A1C8D1268AC43910CEE
:1014000029400C431C85198D500B154C2840800138
:10141000214001431985198D12489201520F014054
:1014200012030A431A850322D9780A43DA700C2280
:10143000D9780A43DA700C4A5A6200221A810632BD
:101440001A709A789207FCD4998B9A8B0A439A83E4
:1014500008221A8330BDC04600500041246080003D
:101460003FF8FFFFFF8FFFFFC00100208022014BEC
:101470001A60704700E100E08022034BDA67BFF397
:101480004F8FBFF36F8F704704E100E00223024AE1
:1014900011890B4313817047005000410B785B06A4
:1014A00007D14B78052B04D180228B781343084A4F
:1014B0009372084B084A09491A605A681140802201
:1014C00092020A435A605A68920B92035A6070471C
:1014D00000500041C0010020B8010020FF3F00F093
:1014E0000720F0B54C790A7904407F232402144385
:1014F00000228D7806382B40ED090700D61CB74036
:10150000A74206D00132072AF7D1174E0020B44275
:101510001ED107205C00154E6419240134190240C5
:1015200066681707124A5B0132403A436260114A0B
:101530009B18CA7819789207920F01320240002D49
:1015400007D181430A431A705A7A063802435A7205
:10155000F0BD7020120181430A431A700222597AA9
:101560006F380A435A72F3E7FF030000C0010020FE
:10157000FFFFFF8F00510041F0B57F2723480F4048
:101580007E01C9097D0034186D1821482D012A50AB
:10159000204D002F13D1002A11D1002B0FD11E4F47
:1015A0003A78D2098A420AD08022076047689202BC
:1015B0002F403A4342604268920B920342609B0480
:1015C0008019002912D142681B092A401343436045
:1015D00043689B0B9B034360402322791343237191
:1015E0000423E27913430120E371F0BD42699B0CAF
:1015F0002A4042614269920B920313438022436165
:10160000637913436371E2790823EBE700510041EA
:10161000C0010020FF3F00F0B8010020002310B5FA
:101620001A008021034CA0470122034B9A831A839E
:1016300010BDC04679150000005000417F23054AC7
:101640000B405B019B18C9092022012900D0102200
:101650005A717047005100417F23054A0B405B01DE
:101660009B18C9092222012900D011221A71704742
:1016700000510041F0B5002401251C4B85B01B8CA6
:101680009BB20393E3B202932B00A340039A1A4246
:1016900027D0174B6201D718FB79D9B202910221EA
:1016A0000B420ED0134B7E319B185A69E3B219439B
:1016B000002392041800104E920C0095B0470223AC
:1016C000FB71029B2B420CD00A4B62019B185A689B
:1016D000002392041800084E920C0095E1B2B04726
:1016E000FD710134082CCDD105B0F0BD0050004192
:1016F00000510041C0010020ED0A000070B52C4CE3
:10170000A38B258B1D4004231D4205D0A3830122FA
:1017100003210020274B98470122154207D01023B0
:10172000A2830421A38300202383224B9847102304
:101730001D4206D0A3830122A382052100201D4B58
:10174000984708231D4224D01120C021A3831A4B9F
:10175000A0825A68194C890522400A435A605A6986
:101760002240114359611321154A10705172154AD4
:1017700015491A605A6800201140802292020A43DB
:101780005A605A68920B92035A600122094B110069
:1017900098470E4C237ADB0606D50D4B012200201C
:1017A00008499847112323720A4B984770BDC046D9
:1017B00000500041910A0000C0010020FFFFFF8F90
:1017C00000510041B8010020FF3F00F0FF500041F0
:1017D000BD0A00007516000070B5064D2C78002C6F
:1017E00005D1054B9847002801D001232B7020001C
:1017F00070BDC046C0020020A9090000014B187846
:101800007047C046C002002013B5084C01A92378D8
:1018100003228B70637860204B70A3780B70044BAD
:1018200098476020E178034B984713BD20040020BF
:101830006D030000A903000010B56020014B98471C
:1018400010BDC046D903000010B56020014B984779
:1018500010BDC046C103000070B501205E4DA84711
:101860005E4C002800D16DE02378042B67D901225B
:101870005B4B1A700220A84700286AD06378042BBB
:1018800064D90122564B5A700320A847002867D01C
:10189000A378042B61D90122514B9A700420A847E8
:1018A000002864D0E378042B5ED901224C4BDA7017
:1018B0000520A847002861D02379042B5BD9012299
:1018C000474B1A710620A84700285ED06379042B85
:1018D00058D90122424B5A710720A84700285BD0F3
:1018E000A379042B55D901223D4B9A710820A847B2
:1018F000002858D0E379042B52D90122384BDA71F1
:101900000920A847002855D0237A042B4FD901225B
:10191000334B1A720A20A847002852D0637A042B4E
:101920004CD901222E4B5A720B20A84700284FD0C9
:10193000A37A042B49D90122294B9A7270BD013335
:10194000237097E7264B2070187093E7013363707C
:101950009AE7234B6070587096E70133A3709DE7B8
:101960001F4BA070987099E70133E370A0E71C4B00
:10197000E070D8709CE701332371A3E7184B207106
:1019800018719FE701336371A6E7154B60715871B9
:10199000A2E70133A371A9E7114BA0719871A5E7E4
:1019A0000133E371ACE70E4BE071D871A8E7013366
:1019B0002372AFE70A4B20721872ABE701336372F0
:1019C000B2E7074B60725872AEE70133A372B5E716
:1019D000034BA0729872B1E741210000C1020020C0
:1019E000CC020020034B1A7842705A789B788270A0
:1019F000C37070479D260000044A431C0B301178C9
:101A00000132197001338342F9D17047F43E00006E
:101A1000030010B50800172909D106495A1C1733CD
:101A2000147801320C7001319342F9D110BD0020BD
:101A3000FCE7C04620040020B023054A0370431C85
:101A4000173011780132197001339842F9D170477B
:101A500020040020FC2010B5284C294B21008001D7
:101A60009847FF216269130A8B43120E13432549DD
:101A70009BB200228B4200D906329300E158224BE0
:101A8000080A19705870080C090ED970511C890089
:101A900061589870080A19715871080C090ED971AB
:101AA000911C890061589871080A19725872080CC3
:101AB000090ED972D11C890061589872080A1973ED
:101AC0005873080C090ED973111D8900615805322D
:101AD0009200A2589873080A19745874080C090ED9
:101AE000D974110A98741A755975FF23120E994307
:101AF000064B0A431A80064B984710BDDC020020B3
:101B0000CD020000204E000020040020D80200205A
:101B100009180000FF20364B70B51988354C01318B
:101B2000626989B21980130A8343120E1343324843
:101B30009BB20022834200D90632304B96005D787A
:101B400018782D020543987800040543D8780006DC
:101B500028435D79A05118792D0205439879561CC8
:101B600000040543D879B600000628435D7AA051E9
:101B7000187A2D020543987A961C00040543D87AFA
:101B8000B600000628435D7BA051187B2D0205435B
:101B9000987BD61C00040543D87BB600000628437A
:101BA0005D7CA051187C2D020543987C161D000415
:101BB0000543D87CB600000628431D7D5B7DA051FF
:101BC0001B0208062B430343FF20090200040140C7
:101BD000FC200532920019438001094BA15098471F
:101BE000FC202100074B80019847074B984770BDA8
:101BF000D8020020DC020020204E0000200400203B
:101C000011030000DD020000551A000002217D4B87
:101C100030B55A788A435A707B4A1178002900D12E
:101C200088E07A4C017825792943017061798170C7
:101C300001211C78214319705178002900D185E0D9
:101C4000724C0178A57929430170E179C1700221B4
:101C50001C78214319709178002900D182E06B4CE7
:101C60000178257A29430170617A017104211C7879
:101C700021431970D178002900D17FE0634C0178AD
:101C8000A57A29430170E17A417108211C7821432A
:101C900019701179002900D17CE05C4C0178257B1A
:101CA00029430170617B817110211C7821431970D7
:101CB0005179002900D179E0544C0178A57B294362
:101CC0000170E17BC17120211C7821431970917949
:101CD000002900D176E04D4C0178257C2943017024
:101CE000617C017240211C7821431970D17900294F
:101CF00000D173E0454C0178A57C29430170E17C5B
:101D0000417280211C78494221431970127A002ABD
:101D100000D16FE03D4902780C7D224302704A7D7C
:101D20008272012259780A435A701888431E9841DA
:101D3000C0B230BD1978C90700D47DE71988344C8A
:101D40000C40802189002143198075E719788907A3
:101D500000D480E719882F4C0C4080218900214352
:101D6000198078E71978490700D483E719882A4C45
:101D70000C4080218900214319807BE719780907ED
:101D800000D486E71988254C0C4080218900214326
:101D900019807EE71978C90600D489E71988204C94
:101DA0000C40802189002143198081E71978890638
:101DB00000D48CE719881B4C0C40802189002143FA
:101DC000198084E71978490600D48FE71988164CE2
:101DD0000C40802189002143198087E719787F29E9
:101DE00000D893E71988114C0C40802189002143C9
:101DF00019808BE75A78D10700D496E703218A43EC
:101E0000013990E71C030020CC02002020040020B0
:101E1000FEFDFFFFFDFDFFFFFBFDFFFFF7FDFFFFE9
:101E2000EFFDFFFFDFFDFFFFBFFDFFFF7FFDFFFFBA
:101E3000044A0021937AD054082B01D80133D9B237
:101E40009172704736040020064A0020D37A917AB6
:101E5000994204D0D05C082B02D90023D37270477A
:101E60000133FBE73604002070B504000078B12888
:101E70000CD0C02809D0094DA0280DD1084B200056
:101E800098472078A847074B984770BD064B98475E
:101E90002078024B9847F8E7A847F6E7311E000084
:101EA000111A000009180000151B000010B50D4B99
:101EB00098470D4B98470D4B98470D4B98470D4B46
:101EC00098470D4B984760200C4B98470C4B984710
:101ED0000C4B98470C4B98470C4B98470C4B98472A
:101EE000FAE7C046DD010000251F00004520000084
:101EF00011200000ED010000012000003903000066
:101F0000551A00002D210000D9170000810C000097
:101F1000F121000010B50020014B984710BDC046CC
:101F2000FD16000000232D4910B50B724B728B7209
:101F3000CB722B4B2B4C1A6A186A920F20409207D7
:101F40000243022002431A620622986902439A6100
:101F50000822D8681042FCD08022186A02431A6214
:101F600002229A840E32D8681042FCD01E4ADA62ED
:101F70001E4A1268920E3F2A2CD0802092028000C6
:101F800002439A62932252009A84173AFF3AD86821
:101F90001042FCD0164B5A7852B2002AFBDB80224A
:101FA00052009A60832252025A600222FF329A60E3
:101FB000104A5A600422FF329A600F4A5A60242263
:101FC000C8690243CA615022486902434A610B4A08
:101FD0005A8010BDFC22D201D3E7C0460004004065
:101FE000000800400000FF0F80BB01042460800057
:101FF000000C00400107010003040100064100003D
:10200000014B024A5A6070470040004180000400C2
:102010008023074A116A0B431362064B064A5A8013
:102020001222064B5A730F321A83054A1A807047E0
:1020300000040040000C004012430000001C00425D
:102040000210000080222D4B1204190010B55A60B6
:10205000022257310A7004215960190042310A7076
:1020600008215960190043310A7080210901596023
:1020700019004B310A7040215960190046310A702D
:1020800010215960190044310A708021C90059603B
:1020900019004A310A7080215960190047310A70CD
:1020A00020215960190045310A7080218902596048
:1020B000190051310A7080214902596019005031CC
:1020C0000A70802212059A605A61802252049A6036
:1020D0005A611A0001200621583210701C3A1478F7
:1020E0002143117080218904996059615933187016
:1020F000602311780B43137010BDC04600440041AB
:10210000102210B5064B997B114208D09A73002219
:102110001A828022034B1205DA61034B984710BDE7
:10212000001C004200440041591800008022034B6B
:10213000D2011A6080221A607047C04600E100E0B8
:102140000138002300B50A280CD8164A013300F0E4
:102150000FF9060B0E1114171A1D20232600106A02
:10216000C00D0340180000BD106A8008F9E7106A2E
:10217000C008F6E7106AC00AF3E7106A8009F0E7C2
:10218000106A0009EDE7106A800AEAE7106AC009E0
:10219000E7E7106A4009E4E7106A400CE1E7106ADB
:1021A000000CDEE7004400417047704710B5024B59
:1021B0001870024B984710BD1E030020391800000C
:1021C00010B5014B984710BD4918000010B5054BDC
:1021D0009847002805D0044B1B78002B01D0034BF7
:1021E000984710BD690900001E030020790900000E
:1021F00030B5002087B0234DA84700280FD0002419
:10220000214B1322210001A8009498471F4B9847A7
:10221000C12832D01BD8A02820D0B02827D0012038
:10222000A847002811D0184B0B2200216846984778
:102230006846174B9847002807D0164B98470B2342
:102240006A4600210120144CA04707B030BDC228C7
:10225000E5D16B4618706846104B0CE06B46187061
:10226000210017236A4620000B4CA047D7E76B4696
:10227000187068460A4B9847F2E76B461870684634
:10228000084BF8E7ED03000085240000491E00001C
:102290000D1C0000CD21000035040000F9190000DC
:1022A000391A0000E51900000020704710B502AA95
:1022B0001188002805D1002903D01800C9B2014BAC
:1022C000984710BD691E0000004870478B2600002B
:1022D000031E034803D00020012B00D101487047A2
:1022E0002926000018000020004870474226000000
:1022F000030010B500280FD10222144B14481968AE
:102300008018144B98470123C022013310485B000A
:1023100092001343038010BD0020062BFBD80B4A0C
:102320009B009C580C4B20009847C0B2031C1F28F0
:1023300000D91F232000DBB2054AE118023288428F
:10234000E2D0047801301480F8E7C046580000203D
:1023500020030020DD2300002D25000002B471467B
:1023600049084900095649008E4402BC7047C046DE
:1023700002B4714649084900095C49008E4402BC18
:102380007047C04603B47146490840004900095AE5
:1023900049008E4403BC704770B50C4D0C4E761B43
:1023A000B61005D0002408CD01349847A642FAD1D2
:1023B00000F076F9074D084E761BB61005D00024C4
:1023C00008CD01349847A642FAD170BDAC26000072
:1023D000AC260000AC260000B0260000F0B5C646D2
:1023E00000B50F2A43D90B00032603431E400C00FF
:1023F0000300002E40D11500103D2D09AC462D01E3
:10240000A846804400E03B00676825685F60E76895
:102410001D60DF601F00A56810379D6010344345C4
:10242000F1D165460F230C2401352D0149191340C4
:102430004519144223D08C59AC5104369C1B032CF3
:10244000F9D80324043B9B0801339B002240ED187C
:10245000C918561E002A07D0002300E02300CA5CDA
:102460005C1CEA549E42F9D104BC9046F0BD0500C4
:10247000561E002AF0D1F7E7561E0500ECE71A00B9
:10248000F6E7C046F0B5050083074AD0541E002A7F
:1024900044D0CEB20300032202E00135013C3DD31B
:1024A00001332E701342F8D1032C2FD9FF220A409A
:1024B000150215432A0415430F2C35D92700103F68
:1024C0003F093E01B4461E001A00103666441560EE
:1024D00055609560D5601032B242F8D10F260C22BB
:1024E00001373F012640DB193700224217D03E1F3B
:1024F000B608B400A4461A001C1D644420C2A242BF
:10250000FCD103240136B6009B193C40002C05D0B9
:10251000C9B21C19197001339C42FBD1F0BD3400C3
:10252000F4E714000300BFE72700E0E710B58307D6
:1025300027D00378002B26D00300032102E01A786D
:10254000002A1CD001330B42F9D119680F4A104CF4
:102550008A188A4322420FD1043319680B4A8A1819
:102560008A43224208D104331968084A8A188A43E8
:102570002242F1D000E001331A78002AFBD1181A68
:1025800010BD0300E1E70020FAE7C046FFFEFEFEB3
:102590008080808080010100000000FF00FFA55ABC
:1025A000D5040000BD040000E5040000A5050000FE
:1025B000FD0600006D070000000000004D65636827
:1025C000616E6963616C2053717569642046616353
:1025D000746F7279004D6163726F39506164004DA0
:1025E0006163726F39506164204D61696E20436F81
:1025F0006E66696775726174696F6E00436F6E66AF
:10260000696775726174696F6E20496E7465726670
:10261000616365004B6579626F61726420496E7415
:102620006572666163650009040600FF0901A10186
:10263000150026FF00750895170901810009019111
:1026400000C009024900020104A03209040000028E
:10265000030000050921110100012219000705816D
:102660000320000A0705010320000A0904010002F3
:1026700003010106092111010001223F0007058223
:1026800003200001070502032000011201000200DF
:102690000000400912019000010102030101000045
:1026A000F8B5C046F8BC08BC9E4670470101000062
:1026B000F8B5C046F8BC08BC9E467047D50000007F
:1026C00040420F00010000006003002010000C00D9
:1026D000000000000000000005010906A101050737
:1026E00019E029E715002501750195088102750893
:1026F00095018101750195050508190129059102CA
:102700007503950191017508950905071500256563
:10271000190029658100C00027260000BC250000A3
:10272000D5250000F43E0000DF250000FC25000058
:04273000142600006B
:0A3EF40030313233343536373839B7
:103F0000112233FF021D00040006000E021E0010E5
:103F1000001100120013000000000000000000006B
:103F20000000000000000000000000000000000091
:103F30000000000000000000000000000000000081
:00000001FF
